:020000040800F2
:1000000030030020B1010008B5010008B701000865
:10001000B9010008BB010008BD0100080000000094
:10002000000000000000000000000000BF01000808
:10003000C101000800000000C3010008C50100085C
:10004000C7010008C7010008C7010008C701000870
:10005000C7010008C7010008C7010008C701000860
:10006000C7010008C7010008C7010008C701000850
:10007000C7010008C7010008C7010008C701000840
:10008000C7010008C7010008C7010008C701000830
:10009000C7010008C7010008C7010008C701000820
:1000A000C7010008C7010008C7010008C701000810
:1000B000C7010008C7010008C7010008C701000800
:1000C000C7010008C7010008C7010008C7010008F0
:1000D000C7010008C7010008C7010008C7010008E0
:1000E000C7010008C7010008C701000800F002F8B6
:1000F00000F04CF80AA090E8000C82448344AAF176
:100100000107DA4501D100F041F8AFF2090EBAE873
:100110000F0013F0010F18BFFB1A43F0010318473B
:1001200044AC000064AC0000103A24BF78C878C129
:10013000FAD8520724BF30C830C144BF04680C60ED
:10014000704700000023002400250026103A28BF35
:1001500078C1FBD8520728BF30C148BF0B60704739
:10016000662909F02E81782906F02A83002070473D
:100170001FB509F06AF806F0B9FE0400002000215E
:1001800008F048F8E0601FBD10B510BD06F0ECFFA8
:100190001146FFF7EDFF00F025F807F00AF803B469
:1001A000FFF7F2FF03BC00F05BFD000030BF000072
:1001B00008480047FEE7FEE7FEE7FEE7FEE7FEE74A
:1001C000FEE7FEE7FEE7FEE703480449024A044B68
:1001D00070470000ED0000083001002030030020CF
:1001E0003001002088B0092000F0D5FC482000F044
:1001F00063FB4FF41651482000F03FFD01F002F977
:100200004FF478407C49088006F05BF904F0A3FBCA
:100210000646C6BB79A000F096FD782003F061FD8C
:1002200018B97FA000F08FFD02E085A000F08BFDE3
:10023000782003F040FB18B98CA000F084FD02E0A8
:1002400093A000F080FD642003F015FC18B99CA079
:1002500000F079FD02E0A4A000F075FD05F092F930
:1002600018B9AAA000F06FFD02E0B5A000F06BFD88
:10027000C24804F016FB044605F08EF920B9C0A070
:1002800000F061FD03E026E0C7A000F05CFD40F255
:10029000731005F0D8FD18B9CFA000F054FD02E0AE
:1002A000D6A000F050FD642005F046FB18B9DFA091
:1002B00000F049FD02E0E6A000F045FD04F07CFA04
:1002C000012003F0C9FC18B9ECA000F03CFD02E0ED
:1002D000F3A000F038FDCDE2FC4BFD4ACDE9002350
:1002E000FC4BFD4AFD49FE4805F00CFFF84800882C
:1002F00010F4807F7ED0F849086808F07FFE04463D
:100300004FF09D4108F048FDF6490860F249486801
:1003100008F074FE04464FF09D4108F03DFDF2499F
:100320000860ED49886808F069FE04464FF09D4179
:1003300008F032FDED490860E749C86808F05EFE44
:1003400004464FF09D4108F027FDE9490860E54863
:1003500001684FF0804008F0B1FE0590E348016865
:10036000059808F0ABFE8246DF4801684FF08040F8
:1003700008F0A4FE0590DE480168059808F09EFE8E
:100380008346514608F0A8FF814608F06BFCCDE992
:10039000060107F007FC07464FF06632D54B08F020
:1003A00087F9044607F04CFFD3490860CF4801683D
:1003B0004FF0804008F082FE0290CC48016802981D
:1003C00008F07CFE8246C84801684FF0404008F0C3
:1003D00075FE0290C4480168029808F06FFE8346DB
:1003E000514608F079FF81464FF07E5108F066FCD7
:1003F000039083E12DE20000440000206D70752021
:10040000696E697469616C697A6174696F6E206381
:100410006F6D706C6574652E2E2E2E2E2E0A2000A8
:100420006D70755F7365745F73656E736F72206353
:100430006F6D706C657465202E2E2E2E2E2E0A0088
:100440006D70755F7365745F73656E736F72206333
:100450006F6D65206163726F7373206572726F7266
:10046000202E2E2E2E2E2E0A000000006D70755F9D
:10047000636F6E6669677572655F6669666F206334
:100480006F6D706C657465202E2E2E2E2E2E0A0038
:100490006D70755F636F6E6669677572655F6669BB
:1004A000666F20636F6D65206163726F7373206583
:1004B00072726F72202E2E2E2E2E2E0A0000000039
:1004C0006D70755F7365745F73616D706C655F727D
:1004D00061746520636F6D706C657465202E2E2EBF
:1004E0002E2E2E0A000000006D70755F7365745F1C
:1004F00073616D706C655F72617465206572726F97
:1005000072202E2E2E2E2E2E0A000000646D705F9B
:100510006C6F61645F6D6F74696F6E5F6472697632
:1005200065725F6669726D7761726520636F6D7069
:100530006C657465202E2E2E2E2E2E0A00000000D3
:10054000646D705F6C6F61645F6D6F74696F6E5F17
:100550006472697665725F6669726D776172652033
:10056000636F6D65206163726F7373206572726F64
:1005700072202E2E2E2E2E2E0A00000000000020AB
:10058000646D705F7365745F6F7269656E746174BA
:10059000696F6E20636F6D706C657465202E2E2EF2
:1005A0002E2E2E0A00000000646D705F7365745F6C
:1005B0006F7269656E746174696F6E20636F6D65CB
:1005C000206163726F7373206572726F72202E2EBA
:1005D0002E2E2E2E0A000000646D705F656E616223
:1005E0006C655F6665617475726520636F6D706CB4
:1005F000657465202E2E2E2E2E2E0A00646D705FDF
:10060000656E61626C655F666561747572652063B5
:100610006F6D65206163726F7373206572726F72A4
:10062000202E2E2E2E2E2E0A00000000646D705FEC
:100630007365745F6669666F5F7261746520636F6E
:100640006D706C657465202E2E2E2E2E2E0A0000E5
:10065000646D705F7365745F6669666F5F72617405
:100660006520636F6D65206163726F7373206572BF
:10067000726F72202E2E2E2E2E2E0A006D70755F38
:100680007365745F646D705F737461746520636F0C
:100690006D706C657465202E2E2E2E2E2E0A000095
:1006A0006D70755F7365745F646D705F7374617492
:1006B0006520636F6D65206163726F73732065726F
:1006C000726F72202E2E2E2E2E2E0A003A0000203F
:1006D0003800002028000020AC000020320000205C
:1006E0002C0000200C00002010000020140000202E
:1006F0001800002066A64C401C00002008F0B2FA4A
:1007000004460D465C4801684FF0804008F0D6FC76
:1007100003905A480168039808F0D0FC8246584874
:1007200001684FF0804008F0C9FC0390554801680B
:10073000039808F0C3FC8346514608F0BFFA81468F
:1007400008F090FA074622462B4607F07DFC4FF052
:1007500066324D4BCDE9040107F0AAFFCDE9060151
:1007600007F06EFD4949086046480168006808F0D6
:10077000A5FC039042480168006808F09FFC0290C5
:100780003E480168006808F099FC01903A48016809
:10079000006808F093FC0090019908F08FFA8346F6
:1007A000029908F099FD8246039908F095FD81466B
:1007B00008F058FA04460D46324801682E48006891
:1007C00008F07CFC83462E4801682C48006808F03D
:1007D00075FC5946039008F071FA82464FF080414B
:1007E00008F06CFC814608F03DFA22462B46CDE924
:1007F000040107F029FC07464FF06632224B07F050
:1008000057FFCDE9060107F01BFD214908600846A6
:10081000006808F027FA074688461C48006808F078
:1008200021FA81468A461B48006808F01BFA0446F4
:1008300002460B4618A11B48CDE9009ACDE9027883
:1008400005F074FF174800F07EFAAFF2443000F074
:100850007AFA102300930223324650211E2002F020
:10086000D8FD4FF478401049088010A232211E2094
:1008700002F04BFE30E500000C00002010000020CC
:10088000140000201800002066A64C402000002024
:10089000240000201C00002025662C25662C2566DF
:1008A000000000007800002044000020544654203E
:1008B00054455354000000004FF0E021096921F035
:1008C00004014FF0E0221161C21700EB5272D21006
:1008D0001F4B1A70194609784FF47A7251431D4A1A
:1008E0001180704701461B4A12884A434FF0E023AB
:1008F0005A6100229A6101221A6100BF4FF0E02282
:10090000106910F0010F02D010F4803FF6D00022E1
:100910004FF0E0231A619A61704701460C4A127841
:100920004A434FF0E0235A6100229A6101221A6182
:1009300000BF4FF0E022106910F0010F02D010F458
:10094000803FF6D000224FF0E0231A619A61704791
:100950003C0000203E000020AF4A0A400243AF4B5B
:100960001A6070470146072323EA01021202AC4BCA
:1009700018684FF6FF0300EA0300AA4B40EA0300A1
:1009800040EA02004FF0E023C3F80C0D70472DE958
:10099000F0478046894614461D462046E11704EB81
:1009A00091714FEAA10AE11704EB91718910A4EB50
:1009B0008101CFB2042000EBC700C7B22846FFF781
:1009C000D1FFC5F1040008FA00F60F20284100EA23
:1009D0000900064306F00F06202C0CDA9248006846
:1009E0004FF0010101FA04F140EA01004FF0E0216B
:1009F000C1F800010DE08D480068A4F120014FF01E
:100A0000010202FA01F240EA02004FF0E021C1F8CF
:100A10000401874850F82A0006FA07F10843844980
:100A200041F82A00BDE8F08770B504460B46CE17A2
:100A300001EB9676B010CE1701EB9676B610A1EBCF
:100A40008606B606350E7B4B9B6943F00103794E53
:100A5000B3614FEAB63353F820300F26AE40B343AC
:100A6000754E46F82030334653F8203004FA05F628
:100A70003343714E46F82030704B1E684FF001032F
:100A800003FA01F346EA03066D4BC3F8006412F063
:100A9000010F0AD06B4B1B684FF0010606FA01F6F6
:100AA00043EA0603664EC6F80C3412F0020F0AD071
:100AB000654B1B684FF0010606FA01F643EA060390
:100AC0005F4EC6F8083470BD00B500205949086172
:100AD000C8601420486100208861C8610846006829
:100AE00040F00100086008464068584908405149F4
:100AF000486008460068564908404E490860084664
:100B0000006820F4802008600846406820F4FE0059
:100B100048600020886000214FF00060FFF71CFF54
:100B200000BD10B54B48006840F004004FF0E021D4
:100B3000C1F8100D3F48C06940F080503D49C86180
:100B40004548406840F48070434948600846006862
:100B500040F0040008600846006840F002000860A9
:100B6000FFF724FB10BD2F48001D2D49086070477A
:100B7000014649062F4A926942F001022D4B9A61C3
:100B80002F4A526822F0E0622D4B5A601A46526892
:100B90000A435A60704730B504460025FFF794FFBA
:100BA0002448006840F480302249086000BF214892
:100BB0000068400CFBD04FF480601E494860A01EC6
:100BC000C4B20846406840EA84404860084640682D
:100BD00040F4803048602148006840F032001F49EE
:100BE00008601448006840F080701249086000BF37
:100BF00010480068400EFBD00E48406840F00200EC
:100C00000C49486005E00B484068C0F3870505F0D3
:100C10000305022DF7D130BD80FFFF1F08ED00E076
:100C20000CED00E00000FA0500E100E004E100E066
:100C300000E400E000100240080001400004014010
:100C4000000001400C040140080401400000FFF8CE
:100C5000FFFFF6FE10ED00E00070004000200240B3
:100C6000014600BF704700BF3D4A128812F0400F96
:100C7000FAD0C2B23B4B1A8070472DE9F05F0546AF
:100C80000E46300108F0D2F98146374905FB01F0E4
:100C900008F0CCF98246494608F07EF80746384607
:100CA00008F08CF984B2204608F0C0F98346394632
:100CB00008F008FB82464FF0834108F0FFF98146B7
:100CC00008F07CF98046240104EB080084B2274830
:100CD000806940F00400254988610846806940F435
:100CE000804088612248006820F47F602149C1F873
:100CF00004080846D0F8040840F40B60C1F8040862
:100D00001A48C06840F480401849C8600846C06866
:100D100020F48040C8601848A0F8084817480088A8
:100D200042F20C0140EA010014490880BDE8F09F3E
:100D3000C0F308010B4A118000BF0949098811F06E
:100D4000400FFAD0704710B50446234603E01878E8
:100D5000FFF7EEFF5B1C18780028F8D110BD0000EB
:100D6000003801400438014040420F0000100240AA
:100D70000408014000000140003001400C380140EF
:100D80004FF48071FF4A516149005161FE4908608A
:100D90004FF08001516111614FF400711161704792
:100DA00010B54FF08830F9490860F949C1F8040CD2
:100DB0004FF00000F44908604FF48070F149086179
:100DC0004FF4007048614FF040004861F1480088DE
:100DD000A0F50941893902D10220FFF79EFD40208C
:100DE000E8490861EC48006884B24FF4007008617B
:100DF0004FF03330E649C1F8000CE84908604FF67F
:100E0000FF70E349C1F80C0C204610BD10B5044634
:100E10000B462046FFF7B4FF4FF48070D9490861B4
:100E200040004861D84803604FF080004861086185
:100E30004FF40070086110BD10B504462046FFF75E
:100E40009FFFFFF7ADFF10BD00B5D2480088A0F5A9
:100E50001341413903D12C20FFF792FF02E02220F9
:100E6000FFF78EFF00BD4FF48071C64A1161490043
:100E70005161C54908604FF08001516111614FF423
:100E800000711161704730B5014601F01F04C1F3D4
:100E90004513CA0AE50205EB43151544A8B230BD57
:100EA0002DE9F04105460E46B5F5A07F01DAF02E9A
:100EB00002DB0020BDE8F0813146284606F082FDC5
:100EC000B4480088A0F51341413903D12E20FFF723
:100ED00057FF02E02220FFF753FF4FF08830AB4965
:100EE0000860AB49C1F8040C4FF6FF70A6490860D2
:100EF0004FF48070A34908614FF4007048614FF0CF
:100F0000400048614FF00100FFF707FD40209D4978
:100F1000086148610120FFF700FD40209949086100
:100F20009D48006884B29B480088A0F51341413970
:100F30000AD14020934948610861974800681FFA28
:100F400080F8E7B24FEA07274FF400708D49086137
:100F50004FF033308D4908608D49C1F8040C4FF6CD
:100F6000FF70C1F80C0C8B480088A0F5134125399F
:100F700017D088480088A0F58A41353911D08548B6
:100F80000088A0F58A4131390BD082480088A0F54D
:100F90000941893905D07F480088A0F535410539D8
:100FA00001D1204686E77B480088A0F513414139EE
:100FB00007D1E012C002B91240EA411040EAE8202D
:100FC00078E72046FFF75FFF74E700B571480088B7
:100FD000A0F51341413903D12920FFF7D1FE04E0E8
:100FE00040F273110720FFF711FF00BD00B56948FB
:100FF0000088A0F51341413903D12820FFF7C0FE36
:1010000003E000210720FFF701FF00BD70B5054692
:1010100000240026082D15D2DFE805F00406080A92
:101020000C0E101206250DE007250BE0042509E043
:10103000052507E0012505E0002503E0032501E083
:10104000022500BF00BF53480088A0F51341413975
:101050007ED1082D1CD2DFE805F00406090C0F1222
:10106000151800BF14E044F0800411E044F040047F
:101070000EE044F0C0040BE044F0200408E044F02B
:10108000600405E044F0A00402E044F0E00400BF86
:1010900000BF362644F0080421463046FFF7B6FE6E
:1010A00014F0200F7CD02A20FFF76AFE4FF48070E6
:1010B00034490861400048610020334908604FF01E
:1010C00080003049486108614FF4007008614FF4B6
:1010D000807008614FF4007048614FF000002C49A7
:1010E000C1F80C0C4FF080002649486108614FF4AC
:1010F000007008614FF4807008614FF4007048611F
:101100004FF00100204908604FF080001D49486100
:1011100008614FF4007008614FF4807008614FF46B
:10112000007048614FF03F00174908604FF08000A1
:101130001449486108614FF4007008614FF02B00BA
:10114000FFF71EFE4FF480700E490861400000E07A
:10115000E9E0486100200C4908604FF0800009492F
:10116000486108614FF4007008614FF480700861B5
:101170004FF4007048614FF00000034908604FF0E1
:1011800080000EE0001001400C0C0140000C0140FA
:101190000000014048000020080C0140040C014000
:1011A0002AE0FF49486108614FF4007008614FF47C
:1011B000807008614FF4007048614FF00000F949F9
:1011C00008604FF08000F649486108614FF40070F4
:1011D00008614FF4807008614FF4007048614FF06F
:1011E000EF00F04908604FF08000ED494861086168
:1011F0004FF400700861C8E02A20FFF7C1FD4FF4EA
:101200008070E7490861400048610020E5490860B6
:101210004FF08000E249486108614FF400700861B6
:101220004FF4807008614FF4007048614FF0000087
:10123000DD49C1F80C0C4FF08000D94948610861C4
:101240004FF4007008614FF4807008614FF4007033
:1012500048614FF00000D34908604FF08000D0494A
:10126000486108614FF4007008614FF480700861B4
:101270004FF4007048614FF0EF00CA4908604FF02A
:101280008000C749486108614FF4007008614FF061
:101290002B00FFF775FD4FF48070C14908614000D5
:1012A00048610020BF4908604FF08000BC49486198
:1012B00008614FF4007008614FF4807008614FF4CA
:1012C000007048614FF00000B64908604FF08000A0
:1012D000B349486108614FF4007008614FF48070B1
:1012E00008614FF4007048614FF00100AD4908609B
:1012F0004FF08000AA49486108614FF4007008610E
:101300004FF4807008614FF4007048614FF03F0067
:10131000A44908604FF08000A149486108614FF47A
:101320000070086131E0082D1CD2DFE805F00407E9
:101330000A0D0F12151844F0300413E044F01004A5
:1013400010E044F020040DE000BF0BE044F038044E
:1013500008E044F0280405E044F0180402E044F0FA
:10136000080400BF00BF91480088A0F509418939F1
:1013700004D1112646F240010C4302E0032644F456
:10138000805421463046FFF741FD70BD70B50446DC
:101390000D462946204606F015FBFFF755FD4FF494
:1013A00080707F49086140004861814800887D491C
:1013B00008604FF080007A49486108614FF400707E
:1013C000086170BD70B5044600250021084606F08E
:1013D000F9FAFFF739FD00BF10E04FF48070704953
:1013E0000861400048616F4804604FF08000486128
:1013F00008614FF40070086105F10105B5F5963FED
:10140000EBD370BD10B56B48806940F008006949A6
:1014100088610846806940F010008861084680694C
:1014200040F0010088610120FFF7A2FB5C484068A2
:101430006FF30B005A4948600846406840F2333168
:101440000843574948600846006820F07F4008601C
:101450000846006840F04C5008600846C06840F4F8
:10146000F860C8604FF03330534908604E49C1F806
:10147000000C4FF6FF704B4908604FF03200FFF749
:1014800031FA01210020FFF7C1FC3220FFF72AFAD0
:101490000020FFF7D1FC454908800846008828B1A4
:1014A00008460088A0F57F41FF3918D1D320FFF707
:1014B00067FCFFF775FCFFF773FCFFF771FC00F0AA
:1014C000BF003A490880084600880006000C0880E2
:1014D000FFF766FC354909880843344908803348DA
:1014E000018836A005F016F930480088A0F51341B0
:1014F000413954D1CF20FFF743FC4FF48070284985
:101500000861400048610020264908604FF08000D3
:101510002349486108614FF4007008614FF48070FE
:1015200008614FF4007048614FF0C1001E49C1F8D6
:101530000C0C4FF080001A49486108614FF40070AC
:1015400008614FF4807008614FF4007048614FF0FB
:101550003000144908604FF080001149486108616B
:101560004FF4007008614FF0ED00FFF709FC4FF4F5
:1015700080700B4908614000486164200949086097
:101580004FF080000649486108614FF4007008611F
:101590004FF4807008614FF40070486116E0FEE37C
:1015A000001001400C0C01400000014048000020E8
:1015B0004400002000100240040C0140204C434431
:1015C0002049443A25780D0A000000004FF003003E
:1015D000FF4908604FF08000FE49486108614FF400
:1015E000007008614FF4807008614FF4007048612A
:1015F0004FF01200F64908604FF08000F54948614D
:1016000008614FF4007008614FF4807008614FF476
:10161000007048614FF08100ED4908604FF0800094
:10162000EC49486108614FF4007008614FF0E80030
:10163000FFF7A6FB4FF48070E6490861400048615F
:101640008520E34908604FF08000E2494861086165
:101650004FF4007008614FF4807008614FF400701F
:1016600048614FF01000DA4908604FF08000D94916
:10167000486108614FF4007008614FF480700861A0
:101680004FF4007048614FF07A00D14908604FF084
:101690008000D049486108614FF4007008614FF044
:1016A000CB00FFF76DFB4FF48070CA490861400022
:1016B00048613920C64908604FF08000C54948613B
:1016C00008614FF4007008614FF4807008614FF4B6
:1016D000007048614FF02C00BD4908604FF0800059
:1016E000BC49486108614FF4007008614FF4807094
:1016F00008614FF4007048614FF00000B449086081
:101700004FF08000B349486108614FF400700861F0
:101710004FF4807008614FF4007048614FF034005E
:10172000AB4908604FF08000AA49486108614FF456
:10173000007008614FF4807008614FF400704861D8
:101740004FF00200A24908604FF08000A1494861B3
:1017500008614FF4007008614FF0F700FFF710FBCD
:101760004FF480709B4908614000486120209849EF
:1017700008604FF080009749486108614FF400709D
:1017800008614FF0EA00FFF7FBFA4FF480709149CF
:1017900008614000486100208D4908604FF08000DA
:1017A0008C49486108614FF4007008614FF4807003
:1017B00008614FF4007048614FF0000084490860F0
:1017C0004FF080008349486108614FF40070086160
:1017D0004FF0C000FFF7D4FA4FF480707D490861E4
:1017E000400048611B207A4908604FF08000794929
:1017F000486108614FF4007008614FF0C100FFF7C5
:10180000BFFA4FF4807073490861400048610120BD
:101810006F4908604FF080006E49486108614FF4DD
:10182000007008614FF0C500FFF7AAFA4FF480700E
:1018300068490861400048613020654908604FF000
:1018400080006449486108614FF4007008614FF4FA
:10185000807008614FF4007048614FF030005E49BD
:10186000C1F80C0C4FF080005A49486108614FF4F0
:10187000007008614FF0C700FFF782FA4FF48070E4
:101880005449086140004861B720514908604FF051
:1018900080005049486108614FF4007008614FF0C2
:1018A0003600FFF76DFA4FF480704A490861400036
:1018B00048614820464908604FF08000454948612A
:1018C00008614FF4007008614FF03A00FFF758FAD2
:1018D0004FF480703F4908614000486155203C4901
:1018E00008604FF080003B49486108614FF4007088
:1018F00008614FF0B100FFF743FA4FF480703549AB
:101900000861400048610020314908604FF08000C4
:101910003049486108614FF4007008614FF48070ED
:1019200008614FF4007048614FF01A0028490860C0
:101930004FF080002749486108614FF4007008614A
:101940004FF0B600FFF71CFA4FF480702149086190
:10195000400048610A201E4908604FF080001D4980
:10196000486108614FF4007008614FF480700861AD
:101970004FF4007048614FF0A200154908604FF025
:1019800080001449486108614FF4007008614FF00D
:10199000F200FFF7F5F94FF480700E49086140003E
:1019A000486100200A4908604FF0800009494861F9
:1019B00008614FF4007008614FF02600FFF7E0F96E
:1019C0004FF480700349086140004861012005E040
:1019D0000C0C01400010014000000140FF4908606C
:1019E0004FF08000FE49486108614FF400700861C3
:1019F0004FF0E000FFF7C4F94FF48070F849086138
:101A0000400048610F20F54908604FF08000F4491C
:101A1000486108614FF4007008614FF480700861FC
:101A20004FF4007048614FF02A00EC4908604FF015
:101A30008000EB49486108614FF4007008614FF481
:101A4000807008614FF4007048614FF02800E3494E
:101A500008604FF08000E249486108614FF400706F
:101A600008614FF4807008614FF4007048614FF0D6
:101A70000800DA4908604FF08000D94948610861E0
:101A80004FF4007008614FF4807008614FF40070EB
:101A900048614FF00E00D14908604FF08000D049F6
:101AA000486108614FF4007008614FF4807008616C
:101AB0004FF4007048614FF00800C84908604FF0CB
:101AC0008000C749486108614FF4007008614FF415
:101AD000807008614FF4007048614FF05400BF49B6
:101AE00008604FF08000BE49486108614FF4007003
:101AF00008614FF4807008614FF4007048614FF046
:101B0000A900B64908604FF08000B54948610861F6
:101B10004FF4007008614FF4807008614FF400705A
:101B200048614FF04300AD4908604FF08000AC4978
:101B3000486108614FF4007008614FF480700861DB
:101B40004FF4007048614FF00A00A44908604FF05C
:101B50008000A349486108614FF4007008614FF4A8
:101B6000807008614FF4007048614FF00F009B498E
:101B700008604FF080009A49486108614FF4007096
:101B800008614FF4807008614FF4007048614FF0B5
:101B900000009449C1F80C0C4FF080009049486156
:101BA00008614FF4007008614FF4807008614FF4D1
:101BB000007048614FF00000884908604FF08000D5
:101BC0008749486108614FF4007008614FF48070E4
:101BD00008614FF4007048614FF000007F490860D1
:101BE0004FF080007E49486108614FF40070086141
:101BF0004FF4807008614FF4007048614FF00000AE
:101C0000764908604FF080007549486108614FF4DB
:101C1000007008614FF0E100FFF7B2F84FF48070F8
:101C20006F4908614000486100206C4908604FF02E
:101C300080006B49486108614FF4007008614FF4FF
:101C4000807008614FF4007048614FF015006349DF
:101C500008604FF080006249486108614FF40070ED
:101C600008614FF4807008614FF4007048614FF0D4
:101C700017005A4908604FF08000594948610861CF
:101C80004FF4007008614FF4807008614FF40070E9
:101C900048614FF00700514908604FF080005049FB
:101CA000486108614FF4007008614FF4807008616A
:101CB0004FF4007048614FF01100484908604FF040
:101CC00080004749486108614FF4007008614FF493
:101CD000807008614FF4007048614FF006003F4982
:101CE00008604FF080003E49486108614FF4007081
:101CF00008614FF4807008614FF4007048614FF044
:101D00002B00364908604FF0800035494861086172
:101D10004FF4007008614FF4807008614FF4007058
:101D200048614FF056002D4908604FF080002C4963
:101D3000486108614FF4007008614FF480700861D9
:101D40004FF4007048614FF03C00244908604FF0A8
:101D500080002349486108614FF4007008614FF426
:101D6000807008614FF4007048614FF005001B4916
:101D700008604FF080001A49486108614FF4007014
:101D800008614FF4807008614FF4007048614FF0B3
:101D90001000124908604FF08000114900E0F5E0A2
:101DA000486108614FF4007008614FF48070086169
:101DB0004FF4007048614FF00F00084908604FF081
:101DC00080000749486108614FF4007008614FF4D2
:101DD000807008614FF40070486105E00C0C014010
:101DE00000100140000001404FF03F00FF49086033
:101DF0004FF08000FE49486108614FF400700861AF
:101E00004FF4807008614FF4007048614FF03F005C
:101E1000F64908604FF08000F549486108614FF4C9
:101E2000007008614FF4807008614FF400704861E1
:101E30004FF00F00ED4908604FF08000EC49486119
:101E400008614FF4007008614FF02B00FEF798FF17
:101E50004FF48070E6490861400048610020E34982
:101E600008604FF08000E249486108614FF400705B
:101E700008614FF4807008614FF4007048614FF0C2
:101E80000000DA4908604FF08000D94948610861D4
:101E90004FF4007008614FF4807008614FF40070D7
:101EA00048614FF00100D349C1F80C0C4FF080009D
:101EB000CF49486108614FF4007008614FF48070A9
:101EC00008614FF4007048614FF03F00C749086057
:101ED0004FF08000C649486108614FF40070086106
:101EE0004FF02A00FEF74CFF4FF48070C0490861A4
:101EF000400048610020BD4908604FF08000BC49A7
:101F0000486108614FF4007008614FF48070086107
:101F10004FF4007048614FF00000B44908604FF082
:101F20008000B349486108614FF4007008614FF4C4
:101F3000807008614FF4007048614FF00000AB49B9
:101F400008604FF08000AA49486108614FF40070B2
:101F500008614FF4807008614FF4007048614FF0E1
:101F6000EF00A24908604FF08000A1494861086174
:101F70004FF4007008614FF01100FEF701FF782068
:101F8000FEF7B0FC2920FEF7FBFEACE29A48008881
:101F9000A0F5134125397ED147F6F001E520FEF783
:101FA00035FF4FF480710120FEF730FF4FF4E06100
:101FB0000220FEF72BFF41F230010320FEF726FF3F
:101FC00000210420FEF722FF40F202210820FEF744
:101FD0001DFF00210920FEF719FF00210A20FEF74E
:101FE00015FF00210C20FEF711FF00210D20FEF748
:101FF0000DFF00210F20FEF709FF00211020FEF742
:1020000005FF07211120FEF701FF00211220FEF736
:10201000FDFE00211320FEF7F9FE00210720FEF748
:10202000F5FE41F290611020FEF7F0FE40F227210C
:102030001120FEF7EBFE9D211220FEF7E7FE4FF484
:10204000C8511320FEF7E2FE25212920FEF7DEFE0F
:102050000D212B20FEF7DAFE07213020FEF7D6FEF9
:1020600040F203313120FEF7D1FE03213220FEF78A
:10207000CDFE40F206213520FEF7C8FE08213620AD
:10208000FEF7C4FE40F206413720FEF7BFFE4FF4D4
:102090004171382000E057E0FEF7B8FE07213920F3
:1020A000FEF7B4FE40F202613C20FEF7AFFE0821CD
:1020B0003D20FEF7ABFE00215020FEF7A7FEEF21EA
:1020C0005120FEF7A3FE00215220FEF79FFE40F2B2
:1020D0003F115320FEF79AFE4FF427416020FEF790
:1020E00095FE01216120FEF791FE00216A20FEF796
:1020F0008DFE00218020FEF789FE00218120FEF761
:1021000085FE00218220FEF781FE00218320FEF75C
:102110007DFE00218420FEF779FE00218520FEF758
:1021200075FE10219020FEF771FE4FF4C0619220E1
:10213000FEF76CFE40F233110720FEF767FE222106
:102140000020FEF763FECEE12B480088A0F5134186
:1021500028397ED11021E720FEF758FE012100200A
:10216000FEF754FE4FF480710120FEF74FFE4FF44E
:10217000E0610220FEF74AFE41F230010320FEF743
:1021800045FE00210420FEF741FE40F20721082011
:10219000FEF73CFE00210920FEF738FE00210A2050
:1021A000FEF734FE01210C20FEF730FE00210D2049
:1021B000FEF72CFE00210F20FEF728FE0021102044
:1021C000FEF724FE07211120FEF720FE0021122039
:1021D000FEF71CFE00211320FEF718FE3220FEF74A
:1021E00081FB41F29051102008E000000C0C0140EE
:1021F000001001400000014048000020FEF706FEEC
:1022000040F227211120FEF701FE3220FEF76AFB83
:102210009C211220FEF7FAFD3220FEF763FB4FF4FB
:10222000C8511320FEF7F2FD23212920FEF7EEFD11
:102230000E212B20FEF7EAFD3220FEF753FB002192
:102240002020FEF7E3FD40F23F112120FEF7DEFDE6
:1022500000E090E03220FEF745FB07213020FEF73A
:10226000D5FD40F207713120FEF7D0FD0621322066
:10227000FEF7CCFD40F204713520FEF7C7FD41F6B4
:1022800004713620FEF7C2FD04213720FEF7BEFDA3
:1022900000213820FEF7BAFD40F206713920FEF722
:1022A000B5FD40F201713C20FEF7B0FD0F213D204D
:1022B000FEF7ACFD3220FEF715FB00215020FEF7A3
:1022C000A5FDEF215120FEF7A1FD00215220FEF7D0
:1022D0009DFD40F23F115320FEF798FD4FF427413A
:1022E0006020FEF793FD01216120FEF78FFD0021A4
:1022F0006A20FEF78BFD00218020FEF787FD00217C
:102300008120FEF783FD00218220FEF77FFD002162
:102310008320FEF77BFD00218420FEF777FD00215E
:102320008520FEF773FD10219020FEF76FFD002140
:102330009220FEF76BFD03219320FEF767FD4FF41B
:1023400088719520FEF762FD00219720FEF75EFD63
:1023500000219820FEF75AFD40F233110720FEF7C6
:1023600055FD00212020FEF751FD40F23F112120B4
:10237000FEF74CFDB7E0FF480088A0F51341203977
:1023800004D0FC480088B0F5134F7ED100210846E8
:10239000FEF73CFD4FF480710120FEF737FD4FF44E
:1023A000E0610220FEF732FD41F230010320FEF72A
:1023B0002DFD00210420FEF729FD40F20221082016
:1023C000FEF724FD00210920FEF720FD00210A2050
:1023D000FEF71CFD01210C20FEF718FD00210D2049
:1023E000FEF714FD00210F20FEF710FD3220FEF74E
:1023F00079FA40F201110720FEF708FD3220FEF7BE
:1024000071FA4FF486511020FEF700FD07211120CC
:10241000FEF7FCFC4FF488711220FEF7F7FC4FF436
:1024200030611320FEF7F2FC00212920FEF7EEFCBC
:1024300044F210012B20FEF7E9FC00215020FEF7AA
:10244000E5FCEF215120FEF7E1FC00215220FEF7D0
:10245000DDFC40F23F115320FEF7D8FC4FF41C5135
:102460006020FEF7D3FC01216120FEF7CFFC0021A4
:102470006A20FEF7CBFC00218020FEF7C7FC00217C
:102480008120FEF7C3FC002100E02DE08220FEF752
:10249000BDFC00218320FEF7B9FC00218420FEF75B
:1024A000B5FC00218520FEF7B1FC10219020FEF73D
:1024B000ADFC00219220FEF7A9FC01219320FEF73C
:1024C000A5FC4FF488719520FEF7A0FC0021972011
:1024D000FEF79CFC00219820FEF798FC40F2731157
:1024E0000720FEF793FCCEE2A2480088A0F5A841A1
:1024F00008397ED14FF480710120FEF787FC4FF43C
:10250000E0610220FEF782FC41F230010320FEF779
:102510007DFC00210420FEF779FC40F20721082011
:10252000FEF774FC00210920FEF770FC00210A2050
:10253000FEF76CFC00210C20FEF768FC00210D204A
:10254000FEF764FC00210F20FEF760FC1420FEF76C
:10255000C9F941F2B0611020FEF758FC01211120A9
:10256000FEF754FC01211720FEF750FC4FF49C713C
:102570001220FEF74BFC4FF400611320FEF746FCDF
:1025800009212920FEF742FC09212A20FEF73EFC02
:102590000021A420FEF73AFC00215020FEF736FC73
:1025A000EF215120FEF732FC00215220FEF72EFCD5
:1025B00040F23F115320FEF729FC4FF41C516020DC
:1025C000FEF724FC01216120FEF720FC00216A2097
:1025D000FEF71CFC00218020FEF718FC0021812062
:1025E000FEF714FC00218220FEF710FC002183205E
:1025F00000E023E0FEF70AFC00218420FEF706FC41
:1026000000218520FEF702FC13219020FEF7FEFB3F
:1026100000219220FEF7FAFB03219320FEF7F6FB40
:102620004FF488719520FEF7F1FB40F273110720FB
:10263000FEF7ECFB3220FEF755F924E24D48008806
:10264000A0F5A85105397ED10720FEF7DFFB322027
:10265000FEF748F94FF48E711220FEF7D7FB0121E7
:10266000A420FEF7D3FB0F210820FEF7CFFB0821A3
:102670000A20FEF7CBFB08210D20FEF7C7FB40F236
:1026800007713020FEF7C2FB07213120FEF7BEFBA9
:1026900040F203613220FEF7B9FB4FF4E0613320D2
:1026A000FEF7B4FB40F202213420FEF7AFFB02211B
:1026B0003520FEF7ABFB41F60F713620FEF7A6FB87
:1026C00040F207713720FEF7A1FB00213820FEF70A
:1026D0009DFB00213920FEF799FB40F207713A205B
:1026E000FEF794FB00213B20FEF790FB07213C20E6
:1026F000FEF78CFB00213D20FEF788FB3220FEF721
:10270000F1F801210720FEF781FB01211720FEF7D8
:102710007DFB3220FEF7E6F84FF4BD511020FEF7A6
:1027200075FB40F217211120FEF770FB4FF48F71FB
:102730001220FEF76BFB4FF470611320FEF766FB6F
:1027400000212A2000E096E0FEF760FB0A21292004
:10275000FEF75CFB4FF49F711220FEF757FB002140
:102760005020FEF753FBEF215120FEF74FFB0021D5
:10277000522001E048000020FEF748FB40F23F11E4
:102780005320FEF743FB4FF41C516020FEF73EFB45
:1027900001216120FEF73AFB00216A20FEF736FB9B
:1027A00000218020FEF732FB00218120FEF72EFB66
:1027B00000218220FEF72AFB00218320FEF726FB62
:1027C00000218420FEF722FB00218520FEF71EFB5E
:1027D00013219020FEF71AFB4FF440719220FEF770
:1027E00015FB05219320FEF711FB00219520FEF734
:1027F0000DFB00219720FEF709FB00219820FEF732
:1028000005FB4FF480710120FEF700FB4FF4E061FF
:102810000220FEF7FBFA41F230010320FEF7F6FA40
:1028200000210420FEF7F2FA00210C20FEF7EEFA58
:1028300000210F20FEF7EAFA00212020FEF7E6FA39
:1028400000212120FEF7E2FA21210720FEF7DEFA1F
:102850001420FEF747F861210720FEF7D7FA14206D
:10286000FEF740F840F273110720FEF7CFFA14206C
:10287000FEF738F807E1FF480088A0F53541053933
:102880007DD10846FEF7C2FA00210846FEF7BEFADF
:1028900000210846FEF7BAFA00210846FEF7B6FA0C
:1028A0000121A420FEF7B2FA1420FEF71BF84FF422
:1028B0001C516020FEF7AAFA40F202210820FEF720
:1028C000A5FA4FF405713020FEF7A0FA43F2157116
:1028D0003120FEF79BFA40F204613220FEF796FAAF
:1028E00040F616613320FEF791FA42F211213420AE
:1028F000FEF78CFA4FF4A8513520FEF787FA48F21C
:1029000007513620FEF782FA41F207413720FEF7E1
:102910007DFA41F203413820FEF778FA2021392070
:10292000FEF774FA1A219020FEF770FA00211020A9
:10293000FEF76CFA07211120FEF768FA0021122039
:10294000FEF764FA00211320FEF760FA1420FDF769
:10295000C9FF4FF4E6611020FEF758FA40F2371134
:102960001120FEF753FA1420FDF7BCFF4FF4DC7181
:102970001220FEF74BFA1420FDF7B4FF00E083E0CD
:102980004FF470611320FEF741FA80212A20FEF7F0
:102990003DFA48212920FEF739FA1420FDF7A2FF5D
:1029A0004FF480710120FEF731FA4FF4E06102200C
:1029B000FEF72CFA41F230210320FEF727FA40F20D
:1029C00002210820FEF722FA00210A20FEF71EFA53
:1029D00000210C20FEF71AFA00210D20FEF716FA4E
:1029E00030210E20FEF712FA00215020FEF70EFAD9
:1029F000EF215120FEF70AFA00215220FEF706FAD5
:102A000040F23F115320FEF701FA4FF41C516020B1
:102A1000FEF7FCF901216120FEF7F8F900216A2098
:102A2000FEF7F4F911219020FEF7F0F94FF4C061A0
:102A30009220FEF7EBF940F202419320FEF7E6F90F
:102A400002219420FEF7E2F91420FDF74BFF01214B
:102A50000720FEF7DBF91420FDF744FF6121072072
:102A6000FEF7D4F940F273110720FEF7CFF90021E9
:102A70002020FEF7CBF900212120FEF7C7F9222103
:102A80000020FEF7C3F914E37A480088A0F5454119
:102A900005397DD10846FEF7B9F900210846FEF751
:102AA000B5F91420FDF71EFF00210846FEF7AEF928
:102AB00000210846FEF7AAF900210846FEF7A6F90C
:102AC00000210846FEF7A2F90121A420FEF79EF995
:102AD0001420FDF707FF4FF41C516020FEF796F914
:102AE00040F606010820FEF791F940F2037130200C
:102AF000FEF78CF901213120FEF788F904213220FC
:102B0000FEF784F94FF481713320FEF77FF94FF41B
:102B100040713420FEF77AF940F203113520FEF7B8
:102B200075F91F213620FEF771F940F20371372045
:102B3000FEF76CF901213820FEF768F904213920ED
:102B4000FEF764F915219020FEF760F94FF48261D9
:102B50001020FEF75BF940F247211120FEF756F9ED
:102B60004FF4DE711220FEF751F94FF4606113202B
:102B7000FEF74CF97820FDF7B5FE4FF48071012087
:102B8000FEF744F94FF400710220FEF73FF900E030
:102B900050E041F230010320FEF738F908210A2005
:102BA000FEF734F900210C20FEF730F920210E2029
:102BB000FEF72CF900210F20FEF728F90021202034
:102BC000FEF724F900212120FEF720F93D212A20DB
:102BD000FEF71CF91420FDF785FE2D212920FEF7B4
:102BE00015F900215020FEF711F94DF2EF015120A7
:102BF000FEF70CF900215220FEF708F940F23F11D0
:102C00005320FEF703F900216120FEF7FFF80021B1
:102C10006A20FEF7FBF84FF440719220FEF7F6F8B9
:102C200005219320FEF7F2F84FF480710720FEF79C
:102C3000EDF83EE20F480088A0F5094189397ED1C0
:102C400001210020FEF7E2F84AF6A4010320FEF776
:102C5000DDF800210C20FEF7D9F840F60C010D201C
:102C6000FEF7D4F84FF42C510E20FEF7CFF8B02128
:102C70001E2001E048000020FEF7C8F842F63F3170
:102C80000120FEF7C3F84FF4C0610220FEF7BEF842
:102C900000211020FEF7BAF846F270011120FEF76D
:102CA000B5F800210520FEF7B1F800210620FEF757
:102CB000ADF84EF61C711620FEF7A8F80321172078
:102CC000FEF7A4F840F233210720FEF79FF8002119
:102CD0000B20FEF79BF800210F20FEF797F800214C
:102CE0004120FEF793F800214220FEF78FF80021E3
:102CF0004820FEF78BF840F23F114920FEF786F896
:102D000000214A20FEF782F800214B20FEF77EF8D2
:102D10004FF46F414420FEF779F800214520FEF77B
:102D200075F840F23F114620FEF770F840F2077147
:102D30003020FEF76BF84FF40171312000E03FE0E6
:102D4000FEF764F84FF401713220FEF75FF840F2AD
:102D500002513320FEF75AF840F207513420FEF7B3
:102D600055F84FF401713520FEF750F84FF401711A
:102D70003620FEF74BF840F202513720FEF746F8B6
:102D800040F202313A20FEF741F840F202313B2096
:102D9000FEF73CF800212320FEF738F8002124201C
:102DA000FEF734F84FF400412520FEF72FF80021FC
:102DB0004F20FEF72BF800214E20FEF727F878E190
:102DC000FF480088A0F58A4131397ED101210020D9
:102DD000FEF71CF80A20FDF785FD41F2286110205E
:102DE000FEF714F80E211220FEF710F840F63921F4
:102DF0001320FEF70BF80A20FDF774FD4021112087
:102E0000FEF704F850211520FEF700F80A20FDF720
:102E100069FD1E211220FDF7F9FF0A20FDF762FD72
:102E20004FF4B1511020FDF7F1FF42F63921132084
:102E3000FDF7ECFF0A20FDF755FD4FF480710120EE
:102E4000FDF7E4FF4FF440710220FDF7DFFF41F290
:102E500030010320FDF7DAFF40F202210820FDF7E0
:102E6000D5FF08210A20FDF7D1FF00213020FDF712
:102E7000CDFF40F202413120FDF7C8FF4FF48371CE
:102E80003220FDF7C3FF40F203513320FDF7BEFFB0
:102E90004FF482713420FDF7B9FF40F20131352043
:102EA000FDF7B4FF40F207713620FDF7AFFF40F2A7
:102EB00005313720FDF7AAFF4FF402713820FDF7E6
:102EC000A5FF40F60B71392000E03BE0FDF79EFFC7
:102ED00002214120FDF79AFF4FF41C516020FDF7BD
:102EE00095FF01216120FDF791FF4FF404719020BF
:102EF000FDF78CFF4FF485719220FDF787FF0421C9
:102F00009320FDF783FF4FF48071A020FDF77EFF33
:102F100001210720FDF77AFF21210720FDF776FF29
:102F200023210720FDF772FF33210720FDF76EFFF5
:102F300040F233110720FDF769FF0021A020FDF7C3
:102F400065FFB6E09E480088A0F58A4135397ED1FC
:102F500030211520FDF75AFF10219A20FDF756FF6A
:102F600020211120FDF752FF43F228411020FDF7E8
:102F70004DFF02211220FDF749FF41F238011320D5
:102F8000FDF744FF2820FDF7ADFC12210846FDF7B0
:102F90003DFF2820FDF7A6FC43F220411020FDF75D
:102FA00035FF43F238011320FDF730FF4620FDF7CF
:102FB00099FC00213020FDF729FF40F20241312029
:102FC000FDF724FF40F207313220FDF71FFF4FF4D9
:102FD00041713320FDF71AFF04213420FDF716FF5D
:102FE00040F201413520FDF711FF40F20771362014
:102FF000FDF70CFF40F205313720FDF707FF4FF4D6
:10300000C2613820FDF702FF4FF4C2613920FDF79D
:10301000FDFE4FF480710120FDF7F8FE4FF4407182
:103020000220FDF7F3FE41F230010320FDF7EEFE32
:1030300040F608010820FDF7E9FE08210A20FDF707
:10304000E5FE4FF41C516020FDF7E0FE00E030E0AB
:1030500001216120FDF7DAFE4FF49F719020FDF70A
:10306000D5FE4FF480719220FDF7D0FE4FF48071B1
:103070009320FDF7CBFE4FF44051A020FDF7C6FE94
:103080001021A320FDF7C2FE01210720FDF7BEFE9F
:1030900021210720FDF7BAFE23210720FDF7B6FE08
:1030A00033210720FDF7B2FE40F233110720FDF770
:1030B000ADFE0020FDF7AAFF0120424908604FF64F
:1030C000FF70FEF77FF910BD2DE9F05F05460E4653
:1030D00017469846DDF828A04FF0000B0020FDF7BA
:1030E00095FFA8EB0600401C1FFA80FB2C461EE053
:1030F0003146204604F066FCFDF7A6FE4FF00009BD
:1031000011E04FF4807030490861400048612F4859
:10311000C0F80CAC8020486108618000086109F1AA
:1031200001001FFA80F9D945EBDB601C84B2BC4278
:10313000DEDD0020FDF76AFFBDE8F09F2DE9FF4FBF
:1031400085B081468A460020049003900798A0EB42
:1031500009050898A0EB0A06CDF80890CDF804A060
:10316000002D01DD012705E00DB9002702E04FF039
:10317000FF376D42002E02DD4FF0010806E016B960
:103180004FF0000802E04FF0FF387642B54201DD13
:103190002C4600E034464FF0000B2AE0019881B243
:1031A000029880B2FEF7F2F804982844049003983D
:1031B000304403900498A0420EDD0498001B07E001
:1031C00048000020A80122420010014000000140F8
:1031D00004900298384402900398A04205DD0398B9
:1031E000001B03900198404401900BF101001FFA6D
:1031F00080FB601C8345D1DD09B0BDE8F08F2DE96F
:10320000F04104460D4616461F462B4632462946D7
:103210002046FFF793FF3B46224629462046FFF70C
:103220008DFF3B46324639462046FFF787FF3B4637
:10323000324629463046FFF781FFBDE8F0812DE98F
:10324000F04706460F469046002445460320A0EB73
:10325000480948E03A1B91B2721B90B2FEF796F80B
:103260003A1B91B2721990B2FEF790F87A1991B2A6
:10327000321B90B2FEF78AF83A1B91B2721B90B2E1
:10328000FEF784F87A1B91B2321B90B2FEF77EF8FB
:103290003A1991B2721990B2FEF778F87A1B91B28E
:1032A000321990B2FEF772F87A1991B2321990B2CF
:1032B000FEF76CF83A1991B2721B90B2FEF766F8FD
:1032C000641CB9F1000F03DAA000801D814404E002
:1032D000601B80000A3081446D1E7A1991B2321948
:1032E00090B2FEF753F8AC42B4DDBDE8F0872DE9AB
:1032F000FF4F81B00746894616461D46BB46954896
:1033000000880090B7F59C7F02DCB9F1E80F02DD80
:1033100005B0BDE8F08FA6F12000C6B20E98C8BB7C
:10332000002434E00C2D07D106EB46008A4901EB5E
:10333000800010F804A004E0884800EB061010F8A4
:1033400004A04FF0000816E01AF0010F03D08149E5
:103350000098088003E0824800887E49088049463A
:103360003846FEF713F84FEA6A0A781C87B208F16C
:10337000010000F0FF0805EBD571B8EB610FE3DB4E
:103380005F4609F101001FFA80F9601CC4B2AC422B
:10339000C8DB2EE0FFE7002429E00C2D07D106EB67
:1033A00046006D4901EB800010F804A004E06B4872
:1033B00000EB061010F804A04FF0000810E01AF01F
:1033C000010F07D009EB040291B207EB080290B29B
:1033D000FDF7DCFF4FEA6A0A08F1010000F0FF0880
:1033E00005EBD571B8EB610FE9DB601CC4B2AC42F0
:1033F000D3DB58490098088000BF89E710B5024622
:10340000012000E050430B00A1F10104E1B2F9D129
:1034100010BD2DE9FF4F81B0074691461E460E9D17
:103420004FF0000A00243BE0301B401EC1B20A20CE
:10343000FFF7E4FFB9FBF0F00A21B0FBF1F201FB6A
:10344000120000F0FF08BAF1000F16D1701EA04262
:1034500013DDB8F1000F0ED10023AB4605EBD5719B
:10346000491001FB047188B200932B462022029977
:10347000FFF73DFF12E04FF0010A0023AB4605EBDA
:10348000D571491001FB047188B200932B4608F1F5
:103490003001CAB20299FFF72AFF00BF601CC4B214
:1034A000B442C1DB05B0BDE8F08F2DE9FF4F81B01C
:1034B00007468A4690461D460E9E002420E0281BA3
:1034C000401EC1B20A20FFF799FFB8FBF0F00A21B5
:1034D000B0FBF1F201FB120000F0FF090F9BB346B5
:1034E00006EBD671491001FB047188B20093334694
:1034F00009F13001CAB25146FFF7F9FE601CC4B2AF
:10350000AC42DCDB05B0BDE8F08FF8B505460E46F1
:1035100014461BE0B5F59C7F03DD002506F1100085
:1035200086B2E82E06DD0020054606464FF6FF70FF
:10353000FDF748FF002300932278102331462846E8
:10354000FFF7D5FE05F1080085B2641C207800283D
:10355000E0D1F8BD44000020BA9400082E9900087C
:10356000460000200146FF48407A30B1012808D0CB
:1035700002280AD0032810D10BE04FF480400880C5
:103580000EE041F69C7008800AE04FF480500880FD
:1035900006E04FF40060088002E04FF0FF30704713
:1035A00000BFF048C07C10B108884010088000209F
:1035B000F5E70146EB48007A30B1012807D0022830
:1035C00008D003280CD108E0E74808600BE0E74882
:1035D000086008E0E648086005E0E648086002E0A8
:1035E0004FF0FF30704700BF0020FBE708B5DD4813
:1035F000807A10B94FF0FF3008BD00200090D94A02
:103600001268D17BD74A526810786B46012202F0CB
:103610009FFF10B14FF0FF30EEE7D24A12685179A8
:10362000D04A526810786B46012202F091FF10B127
:103630004FF0FF30E0E7CB4A12681179C94A52686F
:1036400010786B46012202F083FF10B14FF0FF307B
:10365000D2E7C44890F8240090B30C200090C14AEF
:1036600012681179BF4A526810786B46012202F045
:103670006FFF10B14FF0FF30BEE73220FDF732F997
:10368000C0200090B748807A10F0010F04D09DF858
:10369000000040F020000090B24A12681179B14A4F
:1036A000526810786B46012202F052FF10B14FF0C1
:1036B000FF30A1E7AB48407C18B10220009002E047
:1036C0001FE000200090A74A1268D17BA54A5268EB
:1036D00010786B46012202F03BFF10B14FF0FF3033
:1036E0008AE7002000909F4A126851799D4A5268EB
:1036F00010786B46012202F02BFFB0B34FF0FF3081
:103700007AE704200090974A12681179954A526826
:1037100010786B46012202F01BFF10B14FF0FF3012
:103720006AE79048807C20B98E48807A10F0010FBB
:1037300002D14020009001E060200090894A126888
:103740001179884A526810786B46012202F000FF16
:1037500010B14FF0FF304FE73220FDF7C3F881483A
:10376000407C18B10120009002E01EE00020009093
:103770007C4A1268D17B7B4A526810786B460122E2
:1037800002F0E6FE10B14FF0FF3035E7754A1268DF
:103790005179744A52681078724B1033012202F04A
:1037A000D7FE10B14FF0FF3026E7002024E738B5F0
:1037B00004466C4890F82400C0B114B10220009077
:1037C00001E000200090674A1268D17B654A526888
:1037D00010786B46012202F0BBFE10B14FF0FF30B3
:1037E00038BD9DF800105F48417423E05D48807A41
:1037F00010B94FF0FF30F3E724B15A48407C08B1CC
:103800000020EDE714B10120009001E000200090BD
:10381000544A1268D17B534A526810786B46012291
:1038200002F096FE10B14FF0FF30D9E79DF800107E
:103830004C4841740020D3E738B504464948807AA3
:1038400010B94FF0FF3038BDBC2C02DB01200090D6
:1038500015E0622C02DB0220009010E02A2C02DB33
:10386000032000900BE0142C02DB0420009006E003
:103870000A2C02DB0520009001E006200090394868
:10388000C07A9DF80010884201D10020DBE7354A5C
:1038900012689178334A526810786B46012202F020
:1038A00057FE10B14FF0FF30CDE79DF800102D48C6
:1038B000C1720020C7E770B50446002624F0010459
:1038C000284890F8240008B1002070BD2548807A6F
:1038D00010B94FF0FF30F8E72248057C807A20408D
:1038E000204908740846007CA04202D04FF0FF3601
:1038F00000E0002614B91B48007D18B10120FFF735
:1039000056FF02E00020FFF752FF3CB1FFF76EFECA
:1039100020B1144805744FF0FF30D6E73046D4E7A5
:1039200038B504460F4890F82300A04201D100208A
:1039300038BD14B13020009001E00020009009480B
:10394000807C20B19DF8000040F002000090054806
:1039500090F8220020B19DF8000040F08000009017
:10396000004A09E04C0000200000034300008342AD
:1039700033330342333383411268117DFF4A526867
:1039800010786B46012202F0E3FD10B14FF0FF30DA
:10399000CEE7FA4880F823400020C9E738B504464E
:1039A000282C02DD4FF0FF3038BDDCB90020FFF7D6
:1039B000B7FF00208DF8000007208DF80100EF4AC6
:1039C0001268917CED4A526810786B46022202F030
:1039D000BFFD10B14FF0FF30E6E70021E748017569
:1039E0000020E1E70120FFF79BFF20208DF8000079
:1039F000012C06D100208DF801000520FFF71CFFE7
:103A000017E0052C06DC01208DF801000520FFF7EA
:103A100013FF0EE0142C06DC02208DF801000A20B2
:103A2000FFF70AFF05E003208DF801001420FFF7DF
:103A300003FF9DF80100072101EB8010C0B28DF853
:103A40000100CE4A1268917CCC4A526810786B46CD
:103A5000022202F07DFD10B14FF0FF30A4E70821F3
:103A6000C648817200210173012101750020FFF712
:103A700022FF002098E738B50446C048807A10B984
:103A80004FF0FF3038BDBD4890F8240010B14FF022
:103A9000FF30F7E7B948007D50B134B1282C04DC81
:103AA000E0B2FFF77BFF0020ECE70020FFF776FF96
:103AB000042C01DA042404E0B4F57A7F01DD4FF42C
:103AC0007A744FF47A7090FBF4F0401EC0B200900C
:103AD000AA4A12685178A94A526810786B460122A6
:103AE00002F036FD10B14FF0FF30CBE79DF800003B
:103AF000401C4FF47A7191FBF0F081B29F48C18174
:103B00000146C9894810FFF797FE0020BAE738B58B
:103B100004469A48807CA04201D1002038BDF4B30D
:103B2000964A12681179954A526810786B460122BC
:103B300002F05DFD10B14FF0FF30EFE79DF800009F
:103B400020F0200000908D4A126811798B4A52684B
:103B500010786B46012202F0FBFC10B14FF0FF30F1
:103B6000DCE70320FCF7BEFE02200090834890F8BB
:103B7000220020B19DF8000040F0800000907F48B6
:103B800090F8230020B19DF8000040F03000009034
:103B90007A4A1268117D794A5268107800E007E08D
:103BA0006B46012202F0D4FCC0B34FF0FF30B5E702
:103BB000724A12681179714A526810786B46012274
:103BC00002F015FD10B14FF0FF30A7E76B48807A87
:103BD00010F0010F05D09DF8000040F0200000908B
:103BE00004E09DF8000020F020000090634A126875
:103BF0001179624A526810786B46012202F0A8FCE3
:103C000010B14FF0FF3089E70320FCF76BFE5B48F3
:103C100090F8220018B18020009002E018E0002007
:103C20000090564890F8230020B19DF8000040F025
:103C300030000090514A1268117D504A5268107845
:103C40006B46012202F084FC10B14FF0FF3065E7B3
:103C50004A488474002061E738B50446474890F824
:103C60002400A04201D1002038BD24B3434890F87D
:103C7000250010B94FF0FF30F6E70020FFF797FD61
:103C80000020FFF744FF3D49C88CFFF7F4FE0020F9
:103C900000903A49496808786B460122232102F0D6
:103CA00057FC0121354880F824100120FFF77FFDE3
:103CB000FFF79CFC13E00020FFF779FD2F48007C04
:103CC00000902E49496808786B460122232102F0B2
:103CD0003FFC0021294880F82410FFF787FC0020D2
:103CE000C2E738B5044614F0700F02D001200090EE
:103CF00005E014B10020009001E0402000901F4A30
:103D00001268917C1D4A526810786B46012202F0BD
:103D10001FFC20B1002119488172481E38BD9DF852
:103D2000000020F04000154908730020009014F0B6
:103D3000400F04D19DF8000040F00400009014F002
:103D4000200F04D19DF8000040F00200009014F014
:103D5000100F04D19DF8000040F00100009014F015
:103D6000080F04D19DF8000040F038000090034A8D
:103D70001268D17C014A5268107801E04C000020A2
:103D80006B46012202F0E4FB20B10021F948817268
:103D9000481EC3E724B1082C02D00020FFF7C0FD65
:103DA000F4488472002101753220FCF79BFD00204D
:103DB000B4E738B50446EF48807A10B94FF0FF30C9
:103DC00038BD022C06D0042C07D0082C08D0102CAB
:103DD0000CD108E0002000900BE00820009008E0E3
:103DE0001020009005E01820009002E04FF0FF3016
:103DF000E6E700BFDF48407A9DF80010B0EBE10F26
:103E000001D10020DCE7DB4A1268D179D94A526837
:103E100010786B46012202F09BFB10B14FF0FF308F
:103E2000CEE79DF80000C010D24948720020C7E7D5
:103E300038B50446CF48807A10B94FF0FF3038BD0E
:103E4000FA2C09D0B4F5FA7F09D0B4F57A7F09D0FD
:103E5000B4F5FA6F0CD108E0002000900BE00820C8
:103E6000009008E01020009005E01820009002E08B
:103E70004FF0FF30E3E700BFBE48007A9DF8001026
:103E8000B0EBE10F01D10020D9E7BA4A126891796D
:103E9000B84A526810786B46012202F059FB10B103
:103EA0004FF0FF30CBE79DF80000C010B149087219
:103EB0000020C4E72DE9FC5F06460F460025AD490A
:103EC0004968087801AB03220D2102F090FB10B184
:103ED0000720BDE8FC9F9DF8040000F01F008DF84E
:103EE00004009DF8050000F01F008DF805009DF806
:103EF000060000F01F008DF80600002454E056F87C
:103F0000240057F82410B0EB010B01D4594601E00E
:103F1000CBF10001084605F071F84FF08F41009099
:103F200004F03AFF814601A8005D68B39249086831
:103F300005F07CF883460146904804F02DFF80464A
:103F400004E08F49404605F0B9F8804601A8005DBD
:103F5000401E10F0FF0001A90855F2D14146484625
:103F600004F01AFF83464FF07E5105F0B5F9824602
:103F70002AF0004B80488169584605F072F912D248
:103F80000120A04005430EE07B480169484605F04A
:103F900061F805D378484169484605F062F902D2D4
:103FA0000120A0400543641C032CA8DB284690E7B1
:103FB0007CB505466F494968087801AB04220D219C
:103FC00002F015FB08B107207CBD9DF80700C0F387
:103FD00001109DF8041001F0E00140EAE1008DF8C5
:103FE00000009DF80700C0F381009DF8051001F066
:103FF000E00140EAE1008DF801009DF8070000F0C3
:1040000003009DF8061001F0E00140EAE1008DF8A0
:10401000020000241CE01DF8040018B9002045F837
:10402000240013E0574845F8240006E055F8240022
:10403000554905F043F845F824001DF80400401EDA
:1040400010F0FF000DF80400F0D100BF601CC4B2F6
:10405000032CE0DB0020B7E72DE9FE4F06460F46B4
:1040600000256846FFF7A4FF002440E056F824002E
:1040700057F82410B0EB010A01D4514601E0CAF10F
:104080000001084604F0BAFF83464FF08F4104F068
:1040900083FE80465DF82400002104F03FFF16D027
:1040A0005DF82410404604F077FE82464FF07E51C2
:1040B00005F012F9814629F0004A2F48416A50461E
:1040C00005F0CFF812D20120A04005430EE02A48A7
:1040D000C169404604F0BEFF05D32748016A404647
:1040E00005F0BFF802D20120A0400543641C032C58
:1040F000BCDB2846BDE8FE8F2DE9F74F92B006469F
:104100000C4601208DF8200000208DF82100194A6E
:104110001268917C174A5268107808AB022202F0AC
:1041200017FA20B14FF0FF3015B0BDE8F08FC8206E
:10413000FCF7D8FB00208DF820000E4A1268D17BD6
:104140000C4A5268107808AB012202F001FA10B153
:104150004FF0FF30E8E7074A12685179054A526884
:10416000107808AB012202F0F3F978B14FF0FF307C
:10417000DAE700004C000020489F000800B04C45E2
:1041800054E3853F7B14AE3E1D5A843FFF4A1268BC
:10419000917CFE4A5268107808AB012202F0D8F9EF
:1041A00010B14FF0FF30BFE7F84A1268D17DF74AEF
:1041B0005268107808AB012202F0CAF910B14FF032
:1041C000FF30B1E7F14A12681179F04A526810786D
:1041D00008AB012202F0BCF910B14FF0FF30A3E7A9
:1041E0000C208DF82000E94A12681179E74A5268DC
:1041F000107808AB012202F0ABF910B14FF0FF309C
:1042000092E70F20FCF76EFBE048806A407A8DF859
:104210002000DE4A12689178DC4A5268107808ABB8
:10422000012202F095F910B14FF0FF307CE7D7483A
:10423000806A007A8DF82000D44A12685178D34AF7
:104240005268107808AB012202F082F910B14FF0E9
:10425000FF3069E7149838B1CC48806A807A40F022
:10426000E0008DF8200004E0C848806A807A8DF86C
:104270002000C64A12689179C44A5268107808AB87
:10428000012202F065F910B14FF0FF304CE71498AD
:1042900038B1BE48806AC07A40F0E0008DF8200056
:1042A00003E0BB48C07A8DF82000B84A1268D17983
:1042B000B64A5268107808AB012202F049F910B1F1
:1042C0004FF0FF3030E7149810B1C820FCF70AFB1C
:1042D00040208DF82000AD4A12681179AB4A52682F
:1042E000107808AB012202F033F910B14FF0FF3023
:1042F0001AE778208DF82000A44A12685179A34A61
:104300005268107808AB012202F022F910B14FF088
:10431000FF3009E79E498889FCF7E4FA00208DF810
:1043200020009A4A12685179984A5268107808AB6E
:10433000012202F00DF910B14FF0FF30F4E6934A7C
:104340001268917A914A5268107808AB022202F002
:104350004EF910B14FF0FF30E6E69DF821009DF8D0
:10436000201040EA012006900C21069890FBF1F005
:10437000C5B20020B06070603060A06060602060F6
:10438000079065E0814A1268D17A804A52681078B5
:1043900008AB0C2202F02BF910B14FF0FF30C3E64E
:1043A0009DF821009DF8201040EA012000B2ADF8F0
:1043B00010009DF823009DF8221040EA012000B271
:1043C000ADF812009DF825009DF8241040EA012068
:1043D00000B2ADF81400BDF9101020680844206048
:1043E000BDF91210606808446060BDF91410A0683F
:1043F0000844A0609DF827009DF8261040EA01209F
:1044000000B2ADF808009DF829009DF8281040EA98
:10441000012000B2ADF80A009DF82B009DF82A108B
:1044200040EA012000B2ADF80C00BDF90810306878
:1044300008443060BDF90A10706808447060BDF926
:104440000C10B0680844B0600798401CC0B20790D8
:104450000798A84296DB4E48006803903768F81723
:10446000102211903846119902F009F9CDE90001A6
:104470000023039A02F029F92A460023CDE904011A
:1044800002F023F93060424800680390D6F80480B7
:104490004FEAE870102210904046109902F0EFF8B1
:1044A000CDE900010023039A02F00FF92A46002308
:1044B000CDE9040102F009F9706035480068039005
:1044C000D6F808904FEAE97010220F9048460F99ED
:1044D00002F0D5F8CDE900010023039A02F0F5F8C7
:1044E0002A460023CDE9040102F0EFF8B060284825
:1044F00040680390D4F800A04FEAEA7010220E90B2
:1045000050460E9902F0BBF8CDE900010023039A52
:1045100002F0DBF82A460023CDE9040102F0D5F8C9
:1045200020601B4840680390D4F804B04FEAEB7059
:1045300010220D9058460D9902F0A1F8CDE9000126
:104540000023039A02F0C1F82A460023CDE90401B2
:1045500002F0BBF860600E4840680390A068C11785
:104560001022CDE90B1002F08AF8CDE900010023FA
:10457000039A02F0AAF82A460023CDE9040102F0CA
:10458000A4F8A060A068002809DD03E04C0000202A
:10459000489F0008A068A0F58030A06003E0A068F4
:1045A00000F58030A0600020BEE50146FD48007C9B
:1045B0000870002070470146FA4890F8240010B1B6
:1045C0004FF0FF307047F748C08908800020F9E7B6
:1045D0000146F448C07A082817D2DFE800F0170433
:1045E000070A0D101318BC20088013E06220088011
:1045F00010E02A2008800DE0142008800AE00A203C
:10460000088007E00520088004E000BF00BF00200C
:10461000088000BF00BF002070470146E148407A93
:1046200030B1012807D0022808D003280CD108E0B7
:10463000022008700BE00420087008E008200870D1
:1046400005E01020087002E04FF0FF30704700BF17
:10465000D448C07C18B108784006000E08700020CD
:10466000F4E70146CF48007A30B1012807D002288C
:1046700009D003280FD10AE0FA2008800EE04FF499
:10468000FA7008800AE04FF47A70088006E04FF470
:10469000FA60088002E00020088000BF00BF002010
:1046A00070472DE9F04F8DB083460F4602200C90E5
:1046B000BC4890F8240020B10020FFF7CDFA012675
:1046C00000E0002603A8FFF7CCFF05A8FFF7A5FF31
:1046D00001A8FFF77DFF02A8FFF76DFFB14890F832
:1046E0000AA004A8FFF761FF002407E00022394672
:1046F0005846FFF701FD00B902E0641C022CF5DB0F
:1047000000BF022C01D1002528E0002407E001228F
:1047100006A909A8FFF7F0FC00B902E0641C022C0E
:10472000F5DB00BF022C01D1002517E006A93846B1
:10473000FFF792FC00F0FF0809A95846FFF7BAFB03
:1047400000F0FF090025B9F1000F01D145F0010586
:10475000B8F1000F01D145F0020500BFFF209149DB
:104760000872FF218F484172C1724FF6FF71C181FB
:10477000FF218172017401210173BDF80C00FFF764
:1047800057FB9DF81400FFF714FBBDF80400FFF77A
:1047900053F8BDF80800FFF76EF95046FFF7A1FA8D
:1047A0009DF81000FFF787F816B10120FFF754FAC3
:1047B00028460DB0BDE8F08F70B588B002A905A8F5
:1047C000FFF76FFF0446072C3FD101A8FEF7F1FE6B
:1047D000059804F013FC0646019904F06FFC0546A9
:1047E00004F0D0FB0590069804F008FC06460199F9
:1047F00004F064FC054604F0C5FB0690079804F03D
:10480000FDFB0646019904F059FC054604F0BAFB8D
:10481000079005A800F051FF6846FEF7A3FEBDF81B
:104820000010029848430290BDF8001003984843D6
:104830000390BDF8001004984843049002A800F0CB
:10484000D7FF59A0FCF77FFA02E060A0FCF77BFAE3
:1048500008B070BD014691F90020002A01DD00205A
:104860001EE091F90020002A01DA042018E091F9F5
:104870000120002A01DD012012E091F90120002A27
:1048800001DA05200CE091F90220002A01DD022066
:1048900006E091F90220002A01DA062000E0072054
:1048A000704710B504462046FFF7D4FF0346E01CCE
:1048B000FFF7D0FF43EAC00083B2A01DFFF7CAFF95
:1048C00043EA801083B2184610BD704738B5002403
:1048D00019E034480068C07AA04204D0314800682A
:1048E000407DA04200D10CE02E49496808786B4613
:1048F0000122214601F07BFE10B14FF0FF3038BDA0
:1049000000BF601CC4B2274840680079A042E0DCC8
:104910000020F4E770B504460D4622480068C07ACE
:10492000A04204D01F480068407DA04202D14FF051
:10493000FF3070BD1B4840680079A04202DC4FF098
:10494000FF30F6E71749496808782B4601222146CF
:1049500001F04DFEEDE71CB580208DF80000114AF6
:104960001268917C0F4A526810786B46012201F060
:10497000EFFD10B14FF0FF301CBD6420FBF7B2FF1C
:1049800000208DF80000074A1268917C054A5268A1
:1049900010786B46012201F0DBFD10B14FF0FF30C3
:1049A000EAE725E04C00002073657474696E6720A7
:1049B000626961732073756363657366756C6C7986
:1049C000202E2E2E2E2E2E0A00000000626961730A
:1049D00020686173206E6F74206265656E206D6F54
:1049E000646966696564202E2E2E2E2E2E0A000024
:1049F000FF4A1268917DFE4A526810786B46062283
:104A000001F0F5FD10B14FF0FF30B5E79DF805005E
:104A1000C007400F9DF8031001F0010140EA41007A
:104A20009DF8011001F0010140EA01048CB1012C54
:104A300003D10121EE48C17430E0022C03D10021E2
:104A4000EB48C1742AE0EBA0FCF77DF94FF0FF3092
:104A500092E7E74A1268D178E54A526810786B46C7
:104A6000012201F0C4FD10B14FF0FF3084E79DF842
:104A7000000000F00F042CB9E848FCF764F94FF08F
:104A8000FF3079E7042C06D1E5A0FCF75CF90121A1
:104A9000D748C17402E00021D548C174FF21D44831
:104AA0008172FF20D2490872FF21D1484172C17240
:104AB0004FF6FF71C181FF210174817401210173DF
:104AC00080F82210002180F823104175017508300C
:104AD000C0F80E10C0F81210C0F81610083880F890
:104AE000241080F82510C1844FF4FA60FFF7A0F974
:104AF00010B14FF0FF303FE70220FFF75AF910B135
:104B00004FF0FF3038E72A20FEF796FE10B14FF045
:104B1000FF3031E73220FEF7AEFF10B14FF0FF302B
:104B20002AE70020FEF7C7FE10B14FF0FF3023E761
:104B30000020FEF7ECFF10B14FF0FF301CE7002023
:104B4000FFF7CFF8002017E77CB504460D46A848CC
:104B5000807A10F0700F02D14FF0FF307CBDA44A74
:104B60001268117BA24A526810786B46062201F047
:104B70003EFD10B14FF0FF30F0E79DF801009DF8C9
:104B8000001040EA012000B220809DF803009DF84B
:104B9000021040EA012000B260809DF805009DF8F7
:104BA000041040EA012000B2A08015B12846FFF7AA
:104BB0008CFE0020D2E77CB504460D468C48807AF6
:104BC00010F0080F02D14FF0FF307CBD884A126808
:104BD000517B874A526810786B46062201F007FD28
:104BE00010B14FF0FF30F0E79DF801009DF8001084
:104BF00040EA012000B220809DF803009DF80210D9
:104C000040EA012000B260809DF805009DF8041084
:104C100040EA012000B2A08015B12846FFF755FEFA
:104C20000020D2E72DE9FE4F05460C467048807AF9
:104C300018B94FF0FF30BDE8FE8F6D4A1268917BC6
:104C40006B4A5268107802AB022201F0D0FC10B11E
:104C50004FF0FF30EFE79DF809009DF8081040EA9B
:104C6000012006B214B12046FFF72FFE60494968C3
:104C7000C88804F0DBF95E4901904968B1F9080081
:104C800004F0BCF98346304604F0B8F95946009068
:104C900004F022FB8246019904F07EF881466849BF
:104CA00004F00CF880464FF08F4104F007FA0746F5
:104CB00004F068F928600020BDE710B588B004460C
:104CC0001CB94FF0FF3008B010BD206828B96068EB
:104CD00018B9A06808B90020F5E74549496808787F
:104CE00006AB0322114601F082FC10B14FF0FF30F9
:104CF000E9E79DF81800082101EB201000F00F00F3
:104D0000ADF800009DF8190001EB201000F00F0035
:104D1000ADF802009DF81A0001EB201000F00F0022
:104D2000ADF8040020684100BDF90000403091FB5F
:104D3000F0F000B2ADF8100060684100BDF902006B
:104D4000403091FBF0F000B2ADF81200A0684100D5
:104D5000BDF90400403091FBF0F000B2ADF8140052
:104D600023494968087806AB0622114601F03FFC4A
:104D700010B14FF0FF30A6E79DF819009DF818100C
:104D800040EA012000B2ADF808009DF81B009DF834
:104D90001A1040EA012000B2ADF80A009DF81D008B
:104DA0009DF81C1040EA012000B2ADF80C00BDF8DF
:104DB0001000BDF80810084400B2ADF81000BDF8AE
:104DC0001200BDF80A10084400B2ADF81200BDF898
:104DD0001400BDF80C10084400B2ADF81400BDF882
:104DE0001000000A8DF81800BDF81000C0B229E0CC
:104DF0004C000020556E737570706F72746564207E
:104E0000736F6674776172652070726F6475637416
:104E1000207265762025642E0A000000709F00082D
:104E200048616C662073656E73697469766974791C
:104E3000207061727420666F756E642E0A00000027
:104E400000000C428DF81900BDF81200000A8DF820
:104E50001A00BDF81200C0B28DF81B00BDF8140096
:104E6000000A8DF81C00BDF81400C0B28DF81D00BA
:104E7000FE494968087806AB0622114601F068FB36
:104E800010B14FF0FF301EE700201CE70146002064
:104E90000880401E704701464FF0FF3070470146C2
:104EA000F248807A10B10120087001E000200870FB
:104EB0000020704738B50446EC48807A10B94FF0AE
:104EC000FF3038BDE94A1268117CE84A5268107810
:104ED0006B46022201F08BFB10B14FF0FF30F0E780
:104EE0009DF801009DF8001040EA012000B22080EA
:104EF0000020E6E72DE9FE4F8046894692461D4692
:104F0000DDF830B000260024D84890F8240010B115
:104F1000601EBDE8FE8F00202870D448807A10B94A
:104F20004FF0FF30F5E7D148007C10B94FF0FF306B
:104F3000EFE7CE48007C10F0400F01D0B01CC6B2A5
:104F4000CA48007C10F0200F01D0B01CC6B2C74880
:104F5000007C10F0100F01D0B01CC6B2C348007C1A
:104F600010F0080F01D0B01DC6B2C04A1268917A85
:104F7000BE4A526810786B46022201F038FB10B12D
:104F80004FF0FF30C5E79DF801009DF8001040EAA2
:104F90000127B74201DA0020BBE7B44840684088E7
:104FA000B7EB600F17DDB14A1268517CAF4A526807
:104FB00010786B46012201F01AFB10B14FF0FF3060
:104FC000A7E79DF8000010F0100F04D0FEF70EFBCD
:104FD0006FF001009DE75046FFF777FCA34A126887
:104FE000D17AA24A526810786B46324601F0FFFA35
:104FF00010B14FF0FF308CE797FBF6F0401E8BF8B6
:10500000000000202870B4422AD09848007C10F09C
:10501000080F25D0601C1DF800001DF8041040EAA0
:10502000012000B2A9F80000E01C1DF80010A01C2F
:105030001DF8000041EA002000B2A9F80200601D3E
:105040001DF80010201D1DF8000041EA002000B2EC
:10505000A9F80400287840F008002870A01D84B248
:10506000B44214D08148007C10F0400F0FD0601C77
:105070001DF800001DF8041040EA012000B2A8F855
:105080000000287840F040002870A01C84B2B44290
:1050900014D07648007C10F0200F0FD0601C1DF853
:1050A00000001DF8041040EA012000B2A8F8020038
:1050B000287840F020002870A01C84B2B44214D09C
:1050C0006A48007C10F0100F0FD0601C1DF8000023
:1050D0001DF8041040EA012000B2A8F80400287866
:1050E00040F010002870A01C84B2002011E7F8B531
:1050F00005460F4616465D4890F8240010B94FF05B
:10510000FF30F8BD5948807A10B94FF0FF30F8E70A
:10511000564A1268917A554A526810786B460222B4
:1051200001F065FA10B14FF0FF30EAE79DF8010099
:105130009DF8001040EA0124AC4203DA00203070F0
:10514000401EDEE7494840684088B4EB600F17DD39
:10515000464A1268517C454A526810786B460122D3
:1051600001F045FA10B14FF0FF30CAE79DF800009A
:1051700010F0100F04D0FEF739FA6FF00100C0E70D
:105180003A4A1268D17A394A526810783B46EAB2F4
:1051900001F02DFA10B14FF0FF30B2E794FBF5F0BB
:1051A000401E30700020ACE70146304880F82210E5
:1051B00000207047F8B504460D46164616B94FF064
:1051C000FF30F8BD2948807A10B94FF0FF30F8E77A
:1051D00020128DF80000E0B28DF801009DF801006A
:1051E0002844224949684989884202DD4FF0FF304E
:1051F000E7E71E4A1268117E1C4A526810786B4617
:10520000022201F0A5F910B14FF0FF30D9E7174A9B
:105210001268517D154A526810783346EAB201F09F
:1052200097F910B14FF0FF30CBE70020C9E7F8B590
:1052300004460D46164616B94FF0FF30F8BD0B4830
:10524000807A10B94FF0FF30F8E720128DF8000097
:10525000E0B28DF801009DF8010028440349496837
:105260004989884204DD4FF0FF30E7E74C00002019
:10527000C34A1268117EC24A526810786B460222F5
:1052800001F066F910B14FF0FF30D7E7BC4A126861
:10529000517DBB4A526810783346EAB201F0A7F953
:1052A00010B14FF0FF30C9E70020C7E72DE9F04308
:1052B00085B005460E4690469946B14890F82500BF
:1052C00020B14FF0FF3005B0BDE8F08316B94FF0C4
:1052D000FF30F8E7002423E0281B102801DD102010
:1052E00000E0281B87B2321939462046FFF762FFDB
:1052F00010B14FF0FF30E6E701AA39462046FFF72C
:1053000096FF10B14FF0FF30DDE730193A4601A9A2
:1053100001F084FA10B16FF00100D4E7E01984B213
:10532000AC42D9DB4FEA28208DF8000008F0FF00DE
:105330008DF80100924A1268917E914A5268107865
:105340006B46022201F004F910B14FF0FF30BAE7CA
:1053500001218B4880F82510A0F826900020B2E7A4
:105360000146874890F824000870002070470246E4
:105370004FF0FF30704701464FF0FF307047F8B5EF
:1053800005460F461446F4B3B5F5FF5F01DDFF2671
:1053900005E0202D01DA012601E0C5F3471607B923
:1053A0000127282C02DD4FF0FF30F8BD7448407D06
:1053B00028BB734890F8240038B10020FEF74CFC5D
:1053C00001216F4880F8201003E000216C4880F82C
:1053D00020106B481630FFF744F969481830FFF782
:1053E0001CF967481A30FFF7F3F865481C30FFF7DF
:1053F000E2F86348817A81771F30FFF7D6F8002002
:10540000FEF7D5F900E07AE00020FEF7C7FA0020A9
:105410008DF800005A4A12689178594A52681078FB
:105420006B46012201F094F810B14FF0FF30BCE759
:1054300040208DF80000524A1268D17B504A5268D1
:1054400010786B46012201F083F800B164E08DF81A
:1054500000608DF801704A4A1268117A484A526811
:1054600010786B46022201F073F800B154E0052079
:10547000FBF738FA4248407A072101EBC000C0B27E
:105480008DF800003E4A1268D1793D4A5268107882
:105490006B46012201F05CF800B13DE020208DF860
:1054A0000000012C03D100208DF801000EE0052C36
:1054B00003DC01208DF8010008E0142C03DC02203D
:1054C0008DF8010002E003208DF801009DF8010035
:1054D000072101EB8010C0B28DF80100284A126844
:1054E000917C274A526810786B46022201F030F80E
:1054F00000B111E0012122484175002055E7204A02
:105500001632002103E0505C00B105E0491C0C2973
:10551000F9D34FF0FF3048E7FF2019490872FF2107
:1055200017484172C1724FF6FF71C181FF2181722C
:105530000174012101730146887FFEF7D2FB1049F7
:10554000C88AFEF775FC0E49087EFEF732FC0C494E
:10555000488BFEF771F90A49888BFEF78CFA0849E7
:10556000C87FFEF7A8F9064890F8200010B1012086
:10557000FEF772FB002102484175002015E700008C
:105580004C00002010B5C8234FF48062FB4940F660
:10559000F630FFF78BFE10BD10B586B00446F8A0BC
:1055A00000680390F7A000680290F7A000680190DF
:1055B000F6A00068009004F0030003A9085C8DF8D1
:1055C000140003A8C4F3C101405C8DF8150003A8C2
:1055D000C4F38111405C8DF8160004F0030002A9A9
:1055E000085C8DF8100002A8C4F3C101405C8DF87E
:1055F000110002A8C4F38111405C8DF8120005AAC5
:10560000032140F22640FFF7D5FD18B14FF0FF30DF
:1056100006B010BD04AA032140F22A40FFF7CAFDDC
:1056200010B14FF0FF30F3E7019805900098049017
:1056300014F0040F0BD09DF8140040F001008DF819
:1056400014009DF8100040F001008DF8100014F0D7
:10565000200F0BD09DF8150040F001008DF81500CB
:105660009DF8110040F001008DF8110014F4807FC6
:105670000BD09DF8160040F001008DF816009DF843
:10568000120040F001008DF8120005AA03214FF42A
:105690008860FFF78FFD10B14FF0FF30B8E704AA24
:1056A000032140F23140FFF785FD10B14FF0FF308C
:1056B000AEE7B74804810020AAE72DE9FF4704467A
:1056C000B348008900F0030054F820000190B0486E
:1056D000008910F0040F02D0019840420190AC48BC
:1056E0000089C0F3C10054F820000290A848008946
:1056F00010F0200F02D0029840420290A448008986
:10570000C0F3811054F820000390A148008910F4E0
:10571000807F02D00398404203909E49019880FB0D
:10572000015A1E222846514600F0BCFF01909949BB
:10573000029880FB01671E223046394600F0B2FF16
:1057400002909449039880FB01891E2240464946F5
:1057500000F0A8FF03900198000E8DF8000001985A
:10576000000C8DF801000198000A8DF802000198E4
:10577000C0B28DF803006A4604214FF47470FFF73D
:1057800019FD20B14FF0FF3004B0BDE8F08702985A
:10579000000E8DF800000298000C8DF801000298B0
:1057A000000A8DF802000298C0B28DF803006A4624
:1057B00004214FF47570FFF7FDFC10B14FF0FF307E
:1057C000E2E70398000E8DF800000398000C8DF8B6
:1057D00001000398000A8DF802000398C0B28DF80A
:1057E00003006A4604214FF47670FFF7E3FCCBE731
:1057F0002DE9F04F8BB0074601A8FDF7B3FEBDF8C9
:10580000046000200F2208903046089900F037FF0E
:1058100004460D465E48008900F0030057F820005A
:1058200005905B48008910F0040F02D005984042B3
:10583000059057480089C0F3C10057F82000069032
:105840005348008910F0200F02D00698404206907D
:105850004F480089C0F3811057F8200007904C484A
:10586000008910F4807F02D0079840420790059885
:10587000C117A0FB048201FB042100FB05101E22BE
:105880000A9040460A9900F00DFF05900698C1174E
:10589000A0FB049201FB042100FB051A1E224846CE
:1058A000514600F0FFFE06900798C117A0FB04B216
:1058B00001FB042100FB05101E220990584609999E
:1058C00000F0F0FE07900598000E8DF8080005988E
:1058D000000C8DF809000598000A8DF80A0005985B
:1058E000C0B28DF80B000698000E8DF80C000698DB
:1058F000000C8DF80D000698000A8DF80E00069831
:10590000C0B28DF80F000798000E8DF810000798B0
:10591000000C8DF811000798000A8DF81200079806
:10592000C0B28DF8130002AA0C214FF42570FFF7C6
:1059300041FC0BB0BDE8F08F30B585B0044616A22F
:1059400007CA02AB07C3C82C03DD4FF0FF3005B018
:1059500030BDC82090FBF4F0401E85B2280A8DF8B7
:105960000000E8B28DF801006A46022140F21620DC
:10597000FFF720FCB0B14FF0FF30E8E7BD9F000813
:105980004CCD6C000CC92C003656760026466600BD
:10599000BC00002009E3CA02FEF2ABC4AAF1DFDFBB
:1059A000BBAFDFDF02AA0C2140F6C120FFF702FCEB
:1059B00010B14FF0FF30CAE7FE4884810020C6E7EF
:1059C0000146FC4880890880002070472DE9FC478B
:1059D00006460F4616F0070F02D0B7F5C86F03DD75
:1059E0004FF0FF30BDE8FC87384603F01FFB8146CF
:1059F000F14903F0D1F980466846FEF70EFE9DF8A6
:105A00000000022806D0042816D0082826D0102826
:105A100048D135E04FF08D41404603F04FFB8146C1
:105A200003F0CCFA84B2E549404603F047FB8146D7
:105A300003F0C4FA85B238E04FF08C41404603F0E1
:105A40003DFB814603F0BAFA84B2DD49404603F0DB
:105A500035FB814603F0B2FA85B226E04FF08B4168
:105A6000404603F02BFB814603F0A8FA84B2D549E7
:105A7000404603F023FB814603F0A0FA85B214E010
:105A80004FF08A41404603F019FB814603F096FA35
:105A900084B2CD49404603F011FB814603F08EFAF3
:105AA00085B202E04FF0FF309CE700BF20128DF876
:105AB0000400E0B28DF8050028128DF80600E8B267
:105AC0008DF8070016F0010F14D001AA02214FF43F
:105AD000EA70FFF76FFB10B14FF0FF3082E70DF176
